:020000040800F2
:100000000050002021020008290200082D020008EB
:10001000A1020008A5020008ED020008000000008F
:100020000000000000000000000000003503000890
:1000300039030008000000003D030008B50F000868
:100040005103000851030008510300085103000840
:100050005103000851030008510300085103000830
:100060005103000851030008510300085103000820
:100070005103000851030008510300085103000810
:100080005103000851030008510300085103000800
:1000900051030008510300085103000851030008F0
:1000A00051030008510300085103000851030008E0
:1000B00051030008510300085103000851030008D0
:1000C00051030008510300085103000851030008C0
:1000D00051030008510300085103000851030008B0
:1000E00051030008510300085103000800000000FC
:1000F0000000000000000000000000000000000000
:1001000000000000000000005FF808F100B583B0B7
:1001100000F0C4FD304B314A1360314A1360314B5B
:10012000314A03E011681960043304322F498B42CD
:10013000F8D32A4B1A682E4B9A4204D1284B1A68DE
:100140002C4B9A4200D0FEE7234B2B4A13602B4ADC
:1001500013602B4B02E000221A600433294A9342B9
:10016000F9D3254B1B6813B9244B1B6803B1FEE779
:1001700000F0A0FD694601A800F020FD224C234BB1
:100180001C1BA410002504E01F4B53F82530984792
:100190000135AC42F8DC1E4C1E4B1C1BA410002584
:1001A00004E01B4B53F8253098470135AC42F8DC8E
:1001B0000099019800F008FF0546174C174B1C1BCF
:1001C000A41004E0013C144B53F824309847002C51
:1001D000F8DC284600F0C4FCBABADECA00000020F1
:1001E0009800002000000020441D00089C00002012
:1001F00078563412325476989C0000203801002042
:100200009C0000203C0100207C0300087C030008C7
:100210007C0300087C0300087C0300087C030008C2
:1002200008B5FFF773FF00BF00BEFEE71EF0040F26
:100230000CBFEFF30880EFF309807146414A104785
:100240002DE9F04182B004468846134B5E6B9F6BEC
:100250009D6A1B6B13F0020F0DD00F4BDB6A002B56
:1002600009DA4BF6AB6100F0A1FD20B14FF000427E
:10027000094BDA620CE0094800F0B2FCCDF80080CE
:100280003B4632462946204600F018FD00BEFEE7F8
:1002900002B0BDE8F08100BF00ED00E0B41C000832
:1002A00000BEFEE71EF0040F0CBFEFF30880EFF373
:1002B00009807146244A10472DE9F04182B0044676
:1002C0008846084B5E6B9F6B9D6A074800F088FC70
:1002D000CDF800803B4632462946204600F0EEFC31
:1002E00000BEFEE700ED00E0C41C00081EF0040F95
:1002F0000CBFEFF30880EFF309807146134A1047F3
:100300002DE9F04182B004468846084B5E6B9F6B36
:100310009D6A074800F064FCCDF800803B463246F9
:100320002946204600F0CAFC00BEFEE700ED00E0D2
:10033000D01C000800BEFEE700BEFEE700BEFEE7E0
:100340007047000041020008B902000801030008DC
:0403500000BEFEE706
:10035400441D0008000000209C000020441D0008EB
:1003640000000000000000009C0000203C01002070
:08037400000000000000000081
:10037C0010B50446C378012B03D975211F4800F032
:10038C001FFC63780F2B03D976211C4800F018FC56
:10039C00A3780F2B03D97721184800F011FCE378D0
:1003AC00FBB1174BDB68DB43C3F30223C3F104013E
:1003BC000F22DA40637803FA01F1A37813400B4360
:1003CC001B012278DBB20F490A4482F800332378F0
:1003DC00580903F01F03012202FA03F341F82030FD
:1003EC0010BD23785A0903F01F03012101FA03F30E
:1003FC002032044941F8223010BD00BF2C1A0008ED
:10040C0000ED00E000E100E0F8B505460C46464B77
:10041C0098421BD003F58063984217D003F5806394
:10042C00984213D003F5806398420FD003F5806394
:10043C0098420BD003F58063984207D003F5806394
:10044C00984203D0B221394800F0BAFBE3788BB163
:10045C00042B0FD0282B0DD0482B0BD0142B09D0EC
:10046C00102B07D01C2B05D0182B03D0B3212F48F1
:10047C0000F0A6FB23881BB9B4212C4800F0A0FB8C
:10048C00E37803F00F06304613F0100F0AD0A37870
:10049C00013BDBB2022B03D9BB21244800F090FBBB
:1004AC00A07830432378E3B12E68002316E00122B4
:1004BC009A40218832EA01010FD199000F278F4011
:1004CC0026EA070600FA01F10E43E178282901D14A
:1004DC006A6102E0482900D12A610133072BE6D971
:1004EC002E602388FF2B1ED96E68002318E003F1C1
:1004FC00080101228A40218832EA01010FD19900BA
:10050C000F278F4026EA070600FA01F10E43E17827
:10051C00282900D16A61E178482900D12A61013388
:10052C00072BE4D96E60F8BD00080140541A00088E
:10053C0038B504460D46144B98421CD003F5806325
:10054C00984218D003F58063984214D003F5806369
:10055C00984210D003F5806398420CD003F5806369
:10056C00984208D003F58063984204D040F2791188
:10057C00064800F025FB25B94FF4BD71034800F087
:10058C001FFB656138BD00BF00080140541A00080C
:10059C0010B4294B5B6803F00C03042B05D0082B1B
:1005AC0006D013BB254B036021E0244B03601EE0F7
:1005BC00214A53685268C3F38343023312F4803FD9
:1005CC0004D11F4A02FB03F3036010E01A4A52687D
:1005DC0012F4003F04D01A4A02FB03F3036006E056
:1005EC00164A02FB03F3036001E0144B036012494B
:1005FC004B68C3F30313134CE35CDAB20368D340C8
:10060C0043604A68C2F30222A25CD2B223FA02F21D
:10061C0082604A68C2F3C222A25CD2B2D340C360E9
:10062C004A68C2F3813208498A5CD2B2B3FBF2F356
:10063C00036110BC704700BF0010024000127A002A
:10064C0000093D00080000200400002038B50446D5
:10065C000D460E4B034003B920B940F24A410C48F9
:10066C0000F0AEFA012D04D940F24B41084800F0DD
:10067C00A7FA25B1074A93691C43946138BD054A12
:10068C00936923EA0404946138BD00BF0200C0FFE3
:10069C00881A00080010024038B504460D460E4B6F
:1006AC00184200D120B940F269410C4800F088FA98
:1006BC00012D04D940F26A41084800F081FA25B1B5
:1006CC00074AD3691C43D46138BD054AD36923EA70
:1006DC000404D46138BD00BF00360181881A0008BB
:1006EC000010024038B504460D460E4B034003B9CA
:1006FC0020B940F2A4410C4800F062FA012D04D953
:10070C0040F2A541084800F05BFA25B1074AD368CE
:10071C001C43D46038BD054AD36823EA0404D46072
:10072C0038BD00BF0200C0FF881A0008001002404C
:10073C0038B504460D460E4B184200D120B940F294
:10074C00C3410C4800F03CFA012D04D940F2C441DD
:10075C00084800F035FA25B1074A13691C431461A7
:10076C0038BD054A136923EA0404146138BD00BF7F
:10077C0000360181881A00080010024010B50446AA
:10078C002E4B984213D0A3F5744398420FD003F527
:10079C00806398420BD003F58063984207D003F531
:1007AC008063984203D08521254800F009FA234B39
:1007BC009C420AD101214FF48040FFF793FF0021A6
:1007CC004FF48040FFF78EFF10BD1E4B9C420AD1A8
:1007DC0001214FF40030FFF7ABFF00214FF4003044
:1007EC00FFF7A6FF10BD184B9C420AD101214FF414
:1007FC008020FFF79DFF00214FF48020FFF798FF2A
:10080C0010BD124B9C420AD101214FF40020FFF77E
:10081C008FFF00214FF40020FFF78AFF10BD0C4B17
:10082C009C4209D101214FF48010FFF781FF002178
:10083C004FF48010FFF77CFF10BD00BF0038014063
:10084C00B81A00080044004000480040004C00402A
:10085C000050004030B587B004460D46644B9842BA
:10086C0013D0A3F5744398420FD003F580639842DC
:10087C000BD003F58063984207D003F58063984250
:10088C0003D0B8215B4800F09BF92B68013B5A4A16
:10089C00934203D9B921574800F092F9AB8833B190
:1008AC00B3F5805F03D0BA21524800F089F9EB8888
:1008BC0063B1B3F5805F09D0B3F5005F06D0B3F533
:1008CC00405F03D0BB214B4800F07AF92B894BB128
:1008DC00B3F5806F06D0B3F5C06F03D0BC2145488B
:1008EC0000F06EF96A8922F00C039BB203B91AB9B5
:1008FC00BD21404800F064F9AB8963B1B3F5807F4A
:10090C0009D0B3F5007F06D0B3F5407F03D0BE21EC
:10091C00384800F055F9AB8973B1354B9C420BD07C
:10092C00A3F574439C4207D003F580639C4203D02B
:10093C00C221304800F044F9238A9BB2EA8823F4A0
:10094C00405313432382A3899BB2AA8829896889BF
:10095C000A43024323F4B05323F00C031343A38143
:10096C00A38A9BB2AA8923F440731343A38201A8E0
:10097C00FFF70EFE1E4B9C4201D1049A00E0039A35
:10098C00A38913F4004F08D002EB820202EB82021F
:10099C0029684900B2FBF1F107E002EB820202EB9D
:1009AC00820229688900B2FBF1F1144BA3FB0123ED
:1009BC005B091B011A09642000FB1212A18911F4B6
:1009CC00004F08D0D20032320C49A1FB0212C2F304
:1009DC0042121A4307E0120132320849A1FB0212FB
:1009EC00C2F343121A4392B2228107B030BD00BF4A
:1009FC0000380140B81A00081FAA44001F85EB51AB
:100A0C0038B504460D46164B984214D0A3F57443E2
:100A1C00984210D003F5806398420CD003F58063A4
:100A2C00984208D003F58063984204D04FF4B1711A
:100A3C000C4800F0C5F8012D04D940F263110948A7
:100A4C0000F0BEF82DB1A3899BB243F40053A381EF
:100A5C0038BDA3899BB223F400539BB2A38138BD4C
:100A6C0000380140B81A000870B504460D46164609
:100A7C00364B984214D0A3F57443984210D003F52A
:100A8C00806398420CD003F58063984208D003F53C
:100A9C008063984204D040F289112D4800F090F800
:100AAC00282D1ED040F227739D421AD040F22663A7
:100ABC009D4216D040F225539D4212D040F2244361
:100ACC009D420ED040F646039D420AD040F66A1372
:100ADC009D4206D0602D04D04FF4C5711C4800F027
:100AEC006FF8012E04D940F28B11194800F068F808
:100AFC0040F66A139D420FD1144B9C420CD0A3F5C7
:100B0C0074439C4208D003F580639C4204D040F2AD
:100B1C008F110F4800F054F8C5F3421205F01F0571
:100B2C00012303FA05F59A4201D10C3404E0022AA0
:100B3C0001D1103400E014341EB123681D4325602C
:100B4C0070BD236823EA0505256070BD003801409F
:100B5C00B81A0008FEE700BF08B5034800F052F8C9
:100B6C000120FFF7F7FF00BFEC1A000808B50D4B8A
:100B7C001B6813B90C4A0B4B1A600A4B1A68C31C3E
:100B8C0023F00303134409498B4206D900F0F6FA0B
:100B9C000C2303604FF0FF3008BD02490B60104678
:100BAC0008BD00BFA00000203C010020004C00202C
:100BBC0001230360014B0B60704700BF180000203D
:100BCC0008B50A460146024800F004F8FFF7C4FFD6
:100BDC00401B00080FB400B583B004AB53F8042BD2
:100BEC0001938021064800F003FB002803DD014639
:100BFC00034800F049F803B05DF804EB04B070470B
:100C0C00A800002010B5044600F0BEFA01462046AC
:100C1C0000F03AF80121024800F036F810BD00BF90
:100C2C00301C00082DE9F04385B004460F464356AE
:100C3C0013BB042528462146ABBE04461FE03546AF
:100C4C00102E28BF1025002306E014F9011B04AA5E
:100C5C001A4402F8101C0133AB42F6D304AA134415
:100C6C00002203F8102CE9464FF004084046494690
:100C7C00ABBE8046761B00E00E46002EDFD1384618
:100C8C0005B0BDE8F08300BF08B5FFF7CBFF08BD8A
:100C9C0008B500F0FBF8024B024A9A6008BD00BF91
:100CAC0000ED00E00000000808B500F017F908BDE1
:100CBC00F8B504460D4617461E462648FFF78AFF30
:100CCC0021682548FFF786FF61682448FFF782FFFB
:100CDC00A1682348FFF77EFFE1682248FFF77AFFFF
:100CEC0021692148FFF776FF61692048FFF772FF01
:100CFC00A1691F48FFF76EFFE1691E48FFF76AFF05
:100D0C001D48FFF767FF29461C48FFF763FF1C4C83
:100D1C00E16A1C48FFF75EFF216B1B48FFF75AFF87
:100D2C00E16B1A48FFF756FF15F0800F03D03946D8
:100D3C001748FFF74FFF15F4004F03D03146154805
:100D4C00FFF748FF1448FFF745FF06991348FFF7D4
:100D5C0041FFF8BD981B0008A81B0008B81B000831
:100D6C00C81B0008D81B0008E81B0008F81B00086B
:100D7C00081C0008181C0008281C0008341C00085B
:100D8C0000ED00E0441C0008541C0008641C000822
:100D9C00741C0008841C0008941C00089C1C00088F
:100DAC0083691A888A4207D10268033A012A05D856
:100DBC000233836101207047002070470020704788
:100DCC0082B00023019300932C4A136843F48033C0
:100DDC0013602A4B1B6803F400330093019B01330F
:100DEC000193009B1BB9019BB3F5A06FF1D1234B71
:100DFC001B6813F4003F02D00123009301E0002391
:100E0C000093009B012B36D11D4B1A6842F0100247
:100E1C001A601A6822F003021A601A6842F0020281
:100E2C001A60A3F580535A685A605A685A605A6817
:100E3C0042F480625A605A6822F47C125A605A68F2
:100E4C0042F4E8125A601A6842F080721A600B4B36
:100E5C001B6813F0007FFAD0084B5A6822F003028B
:100E6C005A605A6842F002025A60044B5B6803F005
:100E7C000C03082BF9D102B0704700BF00100240E0
:100E8C000020024008B5FFF79BFF08BD08B5104BCA
:100E9C001A6842F001021A6059680E4A0A405A60F8
:100EAC001A6822F0847222F480321A601A6822F4D2
:100EBC0080221A605A6822F4FE025A604FF41F0214
:100ECC009A60FFF7DFFF4FF00062034B9A6008BD9A
:100EDC00001002400000FFF800ED00E01F4B5B68C3
:100EEC0003F00C03042B06D0082B08D03BBB1C4A88
:100EFC001C4B1A6026E01A4A1A4B1A6022E0174A59
:100F0C0053685268C3F38343023312F4803F05D114
:100F1C00154A02FB03F3134A136013E00F4A52689D
:100F2C0012F4003F05D0104A02FB03F30D4A136084
:100F3C0008E00B4A02FB03F30A4A136002E0084A7A
:100F4C00084B1A60054B5B68C3F30313074AD35C69
:100F5C00DAB204490B68D3400B60704700100240B2
:100F6C0000127A003000002000093D002000002013
:100F7C0030B583B001210420FFF768FB2025ADF8C4
:100F8C00045003238DF8063010238DF80730054CE0
:100F9C0001A92046FFF738FA29462046FFF7C8FA80
:100FAC0003B030BD00080140034B1B681BB1024A63
:100FBC001368013B136070472801002010B582B004
:100FCC001348FFF71FFE134C21681348FFF702FE6E
:100FDC002368124AA2FB03239B09013BB3F1807FD8
:100FEC0009D20F4A5360F0210E4B83F823100023D3
:100FFC0093600723136001A8FFF7BAFF4FF4E130A9
:10100C0000F012F84FF4E13000F062F8FEE700BF98
:10101C00E01C000830000020F41C0008D34D6210C6
:10102C0010E000E000ED00E0F0B587B007460121CC
:10103C0044F20400FFF70AFB234C2046FFF79EFB0B
:10104C004FF40073ADF8143003258DF816501823A7
:10105C008DF817301D4E05A93046FFF7D5F94FF422
:10106C008063ADF8143004238DF8173005A9304691
:10107C00FFF7CAF925238DF800308DF801508DF853
:10108C00025001258DF803506846FFF771F901975E
:10109C000023ADF80830ADF80A30ADF80C30ADF8DF
:1010AC0010300C23ADF80E3001A92046FFF7D2FB0F
:1010BC002A4640F225512046FFF7D6FC2946204609
:1010CC00FFF79EFC07B0F0BD00380140000801405E
:1010DC002DE9F04186B0804601212548FFF7DCFA66
:1010EC00244C2046FFF74AFB0427ADF81470032567
:1010FC008DF8165018238DF817301F4E05A9304661
:10110C00FFF782F90823ADF814308DF8177005A994
:10111C003046FFF779F926238DF800308DF8015011
:10112C008DF8025001258DF803506846FFF720F921
:10113C00CDF804800023ADF80830ADF80A30ADF8D6
:10114C000C30ADF810300C23ADF80E300DEB070160
:10115C002046FFF77FFB2A4640F225512046FFF739
:10116C0083FC29462046FFF74BFC06B0BDE8F08116
:10117C00040002000044004000080140014B1868C4
:10118C00704700BF94000020034613F8012B002A7F
:10119C00FBD1181A0138704730B5141E05469BB0A8
:1011AC00184604DA8B232B604FF0FF301DE04FF410
:1011BC000273ADF80C300CBF234604F1FF330293DD
:1011CC0005934FF6FF7300910491ADF80E30024673
:1011DC001E9B6946284600F073F8431CBCBF8B234A
:1011EC002B6014B1009B00221A701BB030BD0000A4
:1011FC0007B5009313460A46014603480068FFF7FB
:10120C00CBFF03B05DF804FB940000202DE9F04700
:10121C008E6882469E420C46914698463ED88A89F4
:10122C0012F4906F3AD02568096902236F1A656928
:10123C0005EB450595FBF3F57B1C43449D4238BFFC
:10124C001D4653050FD5294600F04AFB064698B1BA
:10125C003A46216900F0D2FAA38923F4906343F053
:10126C008003A38113E02A4600F098FB064670B970
:10127C002169504600F0E8FA0C23CAF80030A38923
:10128C004FF0FF3043F04003A381BDE8F0872661A7
:10129C003E44266046466561ED1BA560464528BF69
:1012AC00464649463246206800F0B3FAA36800204F
:1012BC009B1BA36023681E442660BDE8F0870000DA
:1012CC002DE9F04F9DB003938B8980461C060D468B
:1012DC0016460DD50B695BB9402100F001FB286067
:1012EC00286118B90C23C8F80030CDE040236B619D
:1012FC000023099320238DF82930DFF89CB130238B
:10130C008DF82A3037463C4614F8013B1BB9B7EB35
:10131C00060910D003E0252BF9D02746F3E74B46FE
:10132C00324629464046FFF771FF013000F0A78096
:10133C00099B4B4409933B78002B00F0A0800023C1
:10134C004FF0FF3204930793059206938DF85330B8
:10135C001A930126052221784E4800F041FA671CA9
:10136C00049B38B14B4A3C46801A06FA00F01843ED
:10137C000490EFE7D90644BF20228DF853201A07BA
:10138C0044BF2B228DF8532022782A2A03D0079AA7
:10139C0000210A200BE0039A111D12680391002A08
:1013AC0010DA524243F00200079204900BE02746F9
:1013BC003B780134303B092B03D800FB023201216E
:1013CC00F5E701B107923B782E2B1ED17B782A2BA7
:1013DC000AD1039B02371A1D1B680392002BB8BF5E
:1013EC004FF0FF33059310E0002319460593781C4A
:1013FC000A2407463A780130303A092A03D804FB0C
:10140C0001210123F5E703B1059103223978224824
:10141C0000F0E6F940B14023CBEB000003FA00F0FA
:10142C00049B013718430490397806221B487E1C14
:10143C008DF8281000F0D4F988B1194B33B9039BFF
:10144C00073323F007030833039314E003AB009333
:10145C002A46144B04A94046AFF3008007E003ABC7
:10146C0000932A460F4B04A9404600F093F8B0F1C4
:10147C00FF3F824603D0099B5344099342E7AB8953
:10148C005B0601D4099801E04FF0FF301DB0BDE8B8
:10149C00F08F00BF0E1D0008141D0008181D000859
:1014AC0000000000191200082DE9F04791461F4674
:1014BC000A698B6806469342B8BF1346C9F80030D8
:1014CC0091F843200C46DDF8208012B10133C9F8A5
:1014DC0000302368990642BFD9F800300233C9F8AE
:1014EC000030256815F0060510D104F1190A07E043
:1014FC000123524639463046C04701301AD00135D7
:10150C00E368D9F800209B1A9D42F1DB94F8433034
:10151C002268003318BF012392060FD5E118302042
:10152C0081F843005A1C94F845102244023382F887
:10153C00431003E04FF0FF30BDE8F08704F14302A5
:10154C0039463046C0470130F4D02268D9F80050F3
:10155C00E36802F00602042A08BF5D1B2269A36837
:10156C000CBF25EAE57500259342C4BF9B1AED1804
:10157C004FF000091A344D4509D001232246394653
:10158C003046C0470130D5D009F10109F3E70020FE
:10159C00BDE8F0872DE9F04317460A7E85B06E2A28
:1015AC00984606460C460C9B01F1430E00F0AE80AB
:1015BC0011D8632A22D009D8002A00F0BB80582AFF
:1015CC0040F0CA8081F84520834955E0642A1ED03A
:1015DC00692A1CD0C0E0732A00F0B08009D86F2AA9
:1015EC002ED0702A40F0B8800A6842F020020A60BF
:1015FC003EE0752A24D0782A3AD0ADE01A6801F181
:10160C004205111D1960136884F84230A8E0216866
:10161C001A6811F0800F02D0111D196008E011F04A
:10162C00400F02F10401196002D0B2F9003000E061
:10163C001368002B3CDA2D225B4284F8432037E000
:10164C0021681A6811F0800F02D0111D196007E093
:10165C0011F0400F02F10401196001D0138800E071
:10166C001368227E5C496F2A14BF0A2208221BE0F1
:10167C0078225A4984F845202268186812F0800FA5
:10168C0000F104051D6003D1550601D5038800E067
:10169C000368D00744BF42F0200222601BB92268C5
:1016AC0022F0200222601022002084F8430001E086
:1016BC0049490A226568002DA56008DB206820F0E6
:1016CC00040020602BB9002D7DD175460CE0002B59
:1016DC0079D07546B3FBF2F002FB1033CB5C05F806
:1016EC00013D03460028F5D1082A0BD12368DA07FF
:1016FC0008D5236962689A42DEBF302305F8013CA5
:10170C0005F1FF35C5EB0E0323612EE008681A685E
:10171C0010F0800F496903D0101D1860136808E0A1
:10172C0010F0400F02F104001860136801D019800A
:10173C0000E0196000232361754616E01A68111D3C
:10174C001960156800216268284600F049F808B154
:10175C00401B6060636804E004F1420584F8422099
:10176C0001232361002384F84330CDF800803B46ED
:10177C0003AA21463046FFF797FE013002D14FF005
:10178C00FF3026E023692A4639463046C0470130EF
:10179C00F5D023689B0710D5002504F1190907E043
:1017AC0001234A4639463046C0470130E7D001355F
:1017BC00E368039A9B1A9D42F2DBE068039B984214
:1017CC00B8BF184605E00B7804F1420584F84230A6
:1017DC008AE705B0BDE8F0831F1D0008301D000826
:1017EC0010B5C9B202449042034605D01C780130B2
:1017FC008C42F8D1184610BD002010BD10B5431E08
:10180C000A44914204D011F8014B03F8014FF8E758
:10181C0010BD884210B501EB020301D8421E0BE04B
:10182C009842FBD28118D21AD34204D013F8014D3E
:10183C0001F8014DF8E710BD994204D011F8014BA5
:10184C0002F8014FF8E710BD38B50546002944D021
:10185C0051F8043C0C1F002BB8BFE41800F0D4F86E
:10186C001E4A1368114613B96360146030E0A3423A
:10187C000DD92268A018834201BF18685B68121842
:10188C00226063600C6023E0A24203D813465A68BE
:10189C00002AF9D118681918A1420BD1216801440A
:1018AC0058188242196013D11068526801441960AB
:1018BC005A600DE002D90C232B6009E021686018F6
:1018CC00824201BF106852680918216062605C6036
:1018DC002846BDE8384000F098B838BD30010020EB
:1018EC0070B5CD1C25F0030508350C2D38BF0C2523
:1018FC00002D064601DBA94202D90C23336046E0D9
:10190C0000F082F8234B1C681A462146A1B10B68E3
:10191C005B1B0ED40B2B03D90B60CC18CD501EE0E7
:10192C008C420BBF63684B681360636018BF0C4636
:10193C0015E00C464968E9E7174C23681BB930469B
:10194C0000F052F820602946304600F04DF8431C58
:10195C0018D0C41C24F00304A0420DD125603046DD
:10196C0000F053F804F10B00231D20F00700C31AFC
:10197C000ED05A42E25070BD211A304600F034F8B5
:10198C000130EBD10C233360304600F03EF80020E0
:10199C0070BD00BF300100202C010020F8B50746B7
:1019AC0015460E4621B91146BDE8F840FFF798BF21
:1019BC001AB9FFF749FF2846F8BD00F027F8854211
:1019CC000ED929463846FFF78BFF044650B13146F5
:1019DC002A46FFF713FF31463846FFF735FF01E083
:1019EC003046F8BD2046F8BD38B5064C00230546F8
:1019FC0008462360FFF7BAF8431C02D1236803B1F1
:101A0C002B6038BD340100207047704751F8040C2E
:101A1C000028BEBF091851F8043CC01804387047A0
:101A2C002E2E2F73797374656D2F7372632F7374ED
:101A3C006D333266312D7374647065726970682F02
:101A4C006D6973632E6300002E2E2F73797374658A
:101A5C006D2F7372632F73746D333266312D737403
:101A6C00647065726970682F73746D3332663130CF
:101A7C00785F6770696F2E63000000002E2E2F7345
:101A8C00797374656D2F7372632F73746D33326653
:101A9C00312D7374647065726970682F73746D3353
:101AAC0032663130785F7263632E63002E2E2F7393
:101ABC00797374656D2F7372632F73746D33326623
:101ACC00312D7374647065726970682F73746D3323
:101ADC0032663130785F75736172742E630000006A
:101AEC0061626F727428292C2065786974696E673D
:101AFC002E2E2E002C2066756E6374696F6E3A2044
:101B0C0000000000617373657274696F6E2022258A
:101B1C007322206661696C65643A2066696C652085
:101B2C00222573222C206C696E6520256425732573
:101B3C00730A00006173736572745F706172616D1A
:101B4C002829206661696C65643A2066696C652099
:101B5C00222573222C206C696E652025640A0000F6
:101B6C006D61696E28617267633D25642C2061721A
:101B7C0067763D5B000000002C20000022257322BC
:101B8C00000000005D293B0A0000000053746163F3
:101B9C006B206672616D653A0A000000205230209D
:101BAC003D2020253038580A0000000020523120FA
:101BBC003D2020253038580A0000000020523220E9
:101BCC003D2020253038580A0000000020523320D8
:101BDC003D2020253038580A0000000020523132B8
:101BEC00203D20253038580A00000000204C52209F
:101BFC003D2020253038580A00000000205043209A
:101C0C003D2020253038580A000000002050535247
:101C1C00203D20253038580A000000004653522F32
:101C2C004641523A0A0000002043465352203D20C0
:101C3C0020253038580A00002048465352203D20B9
:101C4C0020253038580A00002044465352203D20AD
:101C5C0020253038580A00002041465352203D20A0
:101C6C0020253038580A0000204D4D464152203D69
:101C7C0020253038580A00002042464152203D2091
:101C8C0020253038580A00004D6973630A000000A3
:101C9C00204C522F4558435F52455455524E3D20CF
:101CAC00253038580A0000005B4861726446617543
:101CBC006C745D0A000000005B4275734661756CC4
:101CCC00745D0A005B55736167654661756C745D84
:101CDC000A00000048656C6C6F2041524D20576F14
:101CEC00726C64210000000053797374656D20637D
:101CFC006C6F636B3A20257520487A0A000000004F
:101D0C004300232D302B2000686C4C006566674522
:101D1C004647003031323334353637383941424357
:101D2C004445460030313233343536373839616208
:051D3C00636465660010
:101D4400785634120204060800000000010203045D
:101D54000102030406070809A40000200000000093
:101D64000000000000000000010203040607080947
:101D740000A24A040000000000000000000000006F
:101D8400000000000000000000000000000000004F
:101D9400000000000C1D000800000000000000000E
:101DA400000000000000000000000000000000002F
:101DB400000000000000000000000000000000001F
:101DC400000000000000000000000000000000000F
:0C1DD4000000000034000020325476981B
:040000050800010DE1
:00000001FF
